{"contracts/ChildrenRights.sol":{"ChildrenRights":{"abi":[{"inputs":[],"stateMutability":"payable","type":"constructor"},{"inputs":[{"internalType":"uint256","name":"_campId","type":"uint256"},{"internalType":"address","name":"_to","type":"address"},{"internalType":"address","name":"_posup","type":"address"}],"name":"donate","outputs":[],"stateMutability":"payable","type":"function"},{"inputs":[],"name":"getContractBalance","outputs":[{"internalType":"uint256","name":"","type":"uint256"}],"stateMutability":"view","type":"function"},{"inputs":[],"name":"owner","outputs":[{"internalType":"address payable","name":"","type":"address"}],"stateMutability":"view","type":"function"},{"inputs":[{"internalType":"uint256","name":"_campId","type":"uint256"}],"name":"withdraw","outputs":[],"stateMutability":"nonpayable","type":"function"}],"evm":{"bytecode":{"linkReferences":{},"object":"608060405269021e19e0c9bab2400000600155336000806101000a81548173ffffffffffffffffffffffffffffffffffffffff021916908373ffffffffffffffffffffffffffffffffffffffff160217905550610902806100616000396000f3fe60806040526004361061003f5760003560e01c80632e1a7d4d1461004457806337f3f7ea1461006d5780636f9fb98a146100895780638da5cb5b146100b4575b600080fd5b34801561005057600080fd5b5061006b6004803603810190610066919061049a565b6100df565b005b610087600480360381019061008291906104c3565b6102d1565b005b34801561009557600080fd5b5061009e610444565b6040516100ab91906106c7565b60405180910390f35b3480156100c057600080fd5b506100c961044c565b6040516100d69190610603565b60405180910390f35b60008054906101000a900473ffffffffffffffffffffffffffffffffffffffff1673ffffffffffffffffffffffffffffffffffffffff163373ffffffffffffffffffffffffffffffffffffffff161461016d576040517f08c379a000000000000000000000000000000000000000000000000000000000815260040161016490610667565b60405180910390fd5b600360009054906101000a900473ffffffffffffffffffffffffffffffffffffffff1673ffffffffffffffffffffffffffffffffffffffff166316a490d4826040518263ffffffff1660e01b81526004016101c891906106c7565b600060405180830381600087803b1580156101e257600080fd5b505af11580156101f6573d6000803e3d6000fd5b50505050600047905060008060009054906101000a900473ffffffffffffffffffffffffffffffffffffffff1673ffffffffffffffffffffffffffffffffffffffff1682604051610246906105ee565b60006040518083038185875af1925050503d8060008114610283576040519150601f19603f3d011682016040523d82523d6000602084013e610288565b606091505b50509050806102cc576040517f08c379a00000000000000000000000000000000000000000000000000000000081526004016102c390610647565b60405180910390fd5b505050565b6002546001541015610318576040517f08c379a000000000000000000000000000000000000000000000000000000000815260040161030f90610687565b60405180910390fd5b6000341161035b576040517f08c379a0000000000000000000000000000000000000000000000000000000008152600401610352906106a7565b60405180910390fd5b80600360006101000a81548173ffffffffffffffffffffffffffffffffffffffff021916908373ffffffffffffffffffffffffffffffffffffffff160217905550346002546103aa91906106fe565b600281905550600360009054906101000a900473ffffffffffffffffffffffffffffffffffffffff1673ffffffffffffffffffffffffffffffffffffffff1663a144819483856040518363ffffffff1660e01b815260040161040d92919061061e565b600060405180830381600087803b15801561042757600080fd5b505af115801561043b573d6000803e3d6000fd5b50505050505050565b600047905090565b60008054906101000a900473ffffffffffffffffffffffffffffffffffffffff1681565b60008135905061047f8161089e565b92915050565b600081359050610494816108b5565b92915050565b6000602082840312156104ac57600080fd5b60006104ba84828501610485565b91505092915050565b6000806000606084860312156104d857600080fd5b60006104e686828701610485565b93505060206104f786828701610470565b925050604061050886828701610470565b9150509250925092565b61051b81610766565b82525050565b61052a81610754565b82525050565b600061053d6014836106ed565b9150610548826107d1565b602082019050919050565b60006105606000836106e2565b915061056b826107fa565b600082019050919050565b60006105836014836106ed565b915061058e826107fd565b602082019050919050565b60006105a66018836106ed565b91506105b182610826565b602082019050919050565b60006105c96026836106ed565b91506105d48261084f565b604082019050919050565b6105e881610798565b82525050565b60006105f982610553565b9150819050919050565b60006020820190506106186000830184610512565b92915050565b60006040820190506106336000830185610521565b61064060208301846105df565b9392505050565b6000602082019050818103600083015261066081610530565b9050919050565b6000602082019050818103600083015261068081610576565b9050919050565b600060208201905081810360008301526106a081610599565b9050919050565b600060208201905081810360008301526106c0816105bc565b9050919050565b60006020820190506106dc60008301846105df565b92915050565b600081905092915050565b600082825260208201905092915050565b600061070982610798565b915061071483610798565b9250827fffffffffffffffffffffffffffffffffffffffffffffffffffffffffffffffff03821115610749576107486107a2565b5b828201905092915050565b600061075f82610778565b9050919050565b600061077182610778565b9050919050565b600073ffffffffffffffffffffffffffffffffffffffff82169050919050565b6000819050919050565b7f4e487b7100000000000000000000000000000000000000000000000000000000600052601160045260246000fd5b7f4661696c656420746f2073656e64204574686572000000000000000000000000600082015250565b50565b7f4e6f74206120636f6e7472616374206f776e6572000000000000000000000000600082015250565b7f6d6178696d756d20646f6e6174696f6e20726561636865640000000000000000600082015250565b7f74686520646f6e6174696f6e206e6565647320746f206265206869676865722060008201527f7468616e20300000000000000000000000000000000000000000000000000000602082015250565b6108a781610754565b81146108b257600080fd5b50565b6108be81610798565b81146108c957600080fd5b5056fea264697066735822122027af7f1dfc9361582dfe03a3b92818e7263e2156ba55187a2586e1e30e2f31ba64736f6c63430008040033","opcodes":"PUSH1 0x80 PUSH1 0x40 MSTORE PUSH10 0x21E19E0C9BAB2400000 PUSH1 0x1 SSTORE CALLER PUSH1 0x0 DUP1 PUSH2 0x100 EXP DUP2 SLOAD DUP2 PUSH20 0xFFFFFFFFFFFFFFFFFFFFFFFFFFFFFFFFFFFFFFFF MUL NOT AND SWAP1 DUP4 PUSH20 0xFFFFFFFFFFFFFFFFFFFFFFFFFFFFFFFFFFFFFFFF AND MUL OR SWAP1 SSTORE POP PUSH2 0x902 DUP1 PUSH2 0x61 PUSH1 0x0 CODECOPY PUSH1 0x0 RETURN INVALID PUSH1 0x80 PUSH1 0x40 MSTORE PUSH1 0x4 CALLDATASIZE LT PUSH2 0x3F JUMPI PUSH1 0x0 CALLDATALOAD PUSH1 0xE0 SHR DUP1 PUSH4 0x2E1A7D4D EQ PUSH2 0x44 JUMPI DUP1 PUSH4 0x37F3F7EA EQ PUSH2 0x6D JUMPI DUP1 PUSH4 0x6F9FB98A EQ PUSH2 0x89 JUMPI DUP1 PUSH4 0x8DA5CB5B EQ PUSH2 0xB4 JUMPI JUMPDEST PUSH1 0x0 DUP1 REVERT JUMPDEST CALLVALUE DUP1 ISZERO PUSH2 0x50 JUMPI PUSH1 0x0 DUP1 REVERT JUMPDEST POP PUSH2 0x6B PUSH1 0x4 DUP1 CALLDATASIZE SUB DUP2 ADD SWAP1 PUSH2 0x66 SWAP2 SWAP1 PUSH2 0x49A JUMP JUMPDEST PUSH2 0xDF JUMP JUMPDEST STOP JUMPDEST PUSH2 0x87 PUSH1 0x4 DUP1 CALLDATASIZE SUB DUP2 ADD SWAP1 PUSH2 0x82 SWAP2 SWAP1 PUSH2 0x4C3 JUMP JUMPDEST PUSH2 0x2D1 JUMP JUMPDEST STOP JUMPDEST CALLVALUE DUP1 ISZERO PUSH2 0x95 JUMPI PUSH1 0x0 DUP1 REVERT JUMPDEST POP PUSH2 0x9E PUSH2 0x444 JUMP JUMPDEST PUSH1 0x40 MLOAD PUSH2 0xAB SWAP2 SWAP1 PUSH2 0x6C7 JUMP JUMPDEST PUSH1 0x40 MLOAD DUP1 SWAP2 SUB SWAP1 RETURN JUMPDEST CALLVALUE DUP1 ISZERO PUSH2 0xC0 JUMPI PUSH1 0x0 DUP1 REVERT JUMPDEST POP PUSH2 0xC9 PUSH2 0x44C JUMP JUMPDEST PUSH1 0x40 MLOAD PUSH2 0xD6 SWAP2 SWAP1 PUSH2 0x603 JUMP JUMPDEST PUSH1 0x40 MLOAD DUP1 SWAP2 SUB SWAP1 RETURN JUMPDEST PUSH1 0x0 DUP1 SLOAD SWAP1 PUSH2 0x100 EXP SWAP1 DIV PUSH20 0xFFFFFFFFFFFFFFFFFFFFFFFFFFFFFFFFFFFFFFFF AND PUSH20 0xFFFFFFFFFFFFFFFFFFFFFFFFFFFFFFFFFFFFFFFF AND CALLER PUSH20 0xFFFFFFFFFFFFFFFFFFFFFFFFFFFFFFFFFFFFFFFF AND EQ PUSH2 0x16D JUMPI PUSH1 0x40 MLOAD PUSH32 0x8C379A000000000000000000000000000000000000000000000000000000000 DUP2 MSTORE PUSH1 0x4 ADD PUSH2 0x164 SWAP1 PUSH2 0x667 JUMP JUMPDEST PUSH1 0x40 MLOAD DUP1 SWAP2 SUB SWAP1 REVERT JUMPDEST PUSH1 0x3 PUSH1 0x0 SWAP1 SLOAD SWAP1 PUSH2 0x100 EXP SWAP1 DIV PUSH20 0xFFFFFFFFFFFFFFFFFFFFFFFFFFFFFFFFFFFFFFFF AND PUSH20 0xFFFFFFFFFFFFFFFFFFFFFFFFFFFFFFFFFFFFFFFF AND PUSH4 0x16A490D4 DUP3 PUSH1 0x40 MLOAD DUP3 PUSH4 0xFFFFFFFF AND PUSH1 0xE0 SHL DUP2 MSTORE PUSH1 0x4 ADD PUSH2 0x1C8 SWAP2 SWAP1 PUSH2 0x6C7 JUMP JUMPDEST PUSH1 0x0 PUSH1 0x40 MLOAD DUP1 DUP4 SUB DUP2 PUSH1 0x0 DUP8 DUP1 EXTCODESIZE ISZERO DUP1 ISZERO PUSH2 0x1E2 JUMPI PUSH1 0x0 DUP1 REVERT JUMPDEST POP GAS CALL ISZERO DUP1 ISZERO PUSH2 0x1F6 JUMPI RETURNDATASIZE PUSH1 0x0 DUP1 RETURNDATACOPY RETURNDATASIZE PUSH1 0x0 REVERT JUMPDEST POP POP POP POP PUSH1 0x0 SELFBALANCE SWAP1 POP PUSH1 0x0 DUP1 PUSH1 0x0 SWAP1 SLOAD SWAP1 PUSH2 0x100 EXP SWAP1 DIV PUSH20 0xFFFFFFFFFFFFFFFFFFFFFFFFFFFFFFFFFFFFFFFF AND PUSH20 0xFFFFFFFFFFFFFFFFFFFFFFFFFFFFFFFFFFFFFFFF AND DUP3 PUSH1 0x40 MLOAD PUSH2 0x246 SWAP1 PUSH2 0x5EE JUMP JUMPDEST PUSH1 0x0 PUSH1 0x40 MLOAD DUP1 DUP4 SUB DUP2 DUP6 DUP8 GAS CALL SWAP3 POP POP POP RETURNDATASIZE DUP1 PUSH1 0x0 DUP2 EQ PUSH2 0x283 JUMPI PUSH1 0x40 MLOAD SWAP2 POP PUSH1 0x1F NOT PUSH1 0x3F RETURNDATASIZE ADD AND DUP3 ADD PUSH1 0x40 MSTORE RETURNDATASIZE DUP3 MSTORE RETURNDATASIZE PUSH1 0x0 PUSH1 0x20 DUP5 ADD RETURNDATACOPY PUSH2 0x288 JUMP JUMPDEST PUSH1 0x60 SWAP2 POP JUMPDEST POP POP SWAP1 POP DUP1 PUSH2 0x2CC JUMPI PUSH1 0x40 MLOAD PUSH32 0x8C379A000000000000000000000000000000000000000000000000000000000 DUP2 MSTORE PUSH1 0x4 ADD PUSH2 0x2C3 SWAP1 PUSH2 0x647 JUMP JUMPDEST PUSH1 0x40 MLOAD DUP1 SWAP2 SUB SWAP1 REVERT JUMPDEST POP POP POP JUMP JUMPDEST PUSH1 0x2 SLOAD PUSH1 0x1 SLOAD LT ISZERO PUSH2 0x318 JUMPI PUSH1 0x40 MLOAD PUSH32 0x8C379A000000000000000000000000000000000000000000000000000000000 DUP2 MSTORE PUSH1 0x4 ADD PUSH2 0x30F SWAP1 PUSH2 0x687 JUMP JUMPDEST PUSH1 0x40 MLOAD DUP1 SWAP2 SUB SWAP1 REVERT JUMPDEST PUSH1 0x0 CALLVALUE GT PUSH2 0x35B JUMPI PUSH1 0x40 MLOAD PUSH32 0x8C379A000000000000000000000000000000000000000000000000000000000 DUP2 MSTORE PUSH1 0x4 ADD PUSH2 0x352 SWAP1 PUSH2 0x6A7 JUMP JUMPDEST PUSH1 0x40 MLOAD DUP1 SWAP2 SUB SWAP1 REVERT JUMPDEST DUP1 PUSH1 0x3 PUSH1 0x0 PUSH2 0x100 EXP DUP2 SLOAD DUP2 PUSH20 0xFFFFFFFFFFFFFFFFFFFFFFFFFFFFFFFFFFFFFFFF MUL NOT AND SWAP1 DUP4 PUSH20 0xFFFFFFFFFFFFFFFFFFFFFFFFFFFFFFFFFFFFFFFF AND MUL OR SWAP1 SSTORE POP CALLVALUE PUSH1 0x2 SLOAD PUSH2 0x3AA SWAP2 SWAP1 PUSH2 0x6FE JUMP JUMPDEST PUSH1 0x2 DUP2 SWAP1 SSTORE POP PUSH1 0x3 PUSH1 0x0 SWAP1 SLOAD SWAP1 PUSH2 0x100 EXP SWAP1 DIV PUSH20 0xFFFFFFFFFFFFFFFFFFFFFFFFFFFFFFFFFFFFFFFF AND PUSH20 0xFFFFFFFFFFFFFFFFFFFFFFFFFFFFFFFFFFFFFFFF AND PUSH4 0xA1448194 DUP4 DUP6 PUSH1 0x40 MLOAD DUP4 PUSH4 0xFFFFFFFF AND PUSH1 0xE0 SHL DUP2 MSTORE PUSH1 0x4 ADD PUSH2 0x40D SWAP3 SWAP2 SWAP1 PUSH2 0x61E JUMP JUMPDEST PUSH1 0x0 PUSH1 0x40 MLOAD DUP1 DUP4 SUB DUP2 PUSH1 0x0 DUP8 DUP1 EXTCODESIZE ISZERO DUP1 ISZERO PUSH2 0x427 JUMPI PUSH1 0x0 DUP1 REVERT JUMPDEST POP GAS CALL ISZERO DUP1 ISZERO PUSH2 0x43B JUMPI RETURNDATASIZE PUSH1 0x0 DUP1 RETURNDATACOPY RETURNDATASIZE PUSH1 0x0 REVERT JUMPDEST POP POP POP POP POP POP POP JUMP JUMPDEST PUSH1 0x0 SELFBALANCE SWAP1 POP SWAP1 JUMP JUMPDEST PUSH1 0x0 DUP1 SLOAD SWAP1 PUSH2 0x100 EXP SWAP1 DIV PUSH20 0xFFFFFFFFFFFFFFFFFFFFFFFFFFFFFFFFFFFFFFFF AND DUP2 JUMP JUMPDEST PUSH1 0x0 DUP2 CALLDATALOAD SWAP1 POP PUSH2 0x47F DUP2 PUSH2 0x89E JUMP JUMPDEST SWAP3 SWAP2 POP POP JUMP JUMPDEST PUSH1 0x0 DUP2 CALLDATALOAD SWAP1 POP PUSH2 0x494 DUP2 PUSH2 0x8B5 JUMP JUMPDEST SWAP3 SWAP2 POP POP JUMP JUMPDEST PUSH1 0x0 PUSH1 0x20 DUP3 DUP5 SUB SLT ISZERO PUSH2 0x4AC JUMPI PUSH1 0x0 DUP1 REVERT JUMPDEST PUSH1 0x0 PUSH2 0x4BA DUP5 DUP3 DUP6 ADD PUSH2 0x485 JUMP JUMPDEST SWAP2 POP POP SWAP3 SWAP2 POP POP JUMP JUMPDEST PUSH1 0x0 DUP1 PUSH1 0x0 PUSH1 0x60 DUP5 DUP7 SUB SLT ISZERO PUSH2 0x4D8 JUMPI PUSH1 0x0 DUP1 REVERT JUMPDEST PUSH1 0x0 PUSH2 0x4E6 DUP7 DUP3 DUP8 ADD PUSH2 0x485 JUMP JUMPDEST SWAP4 POP POP PUSH1 0x20 PUSH2 0x4F7 DUP7 DUP3 DUP8 ADD PUSH2 0x470 JUMP JUMPDEST SWAP3 POP POP PUSH1 0x40 PUSH2 0x508 DUP7 DUP3 DUP8 ADD PUSH2 0x470 JUMP JUMPDEST SWAP2 POP POP SWAP3 POP SWAP3 POP SWAP3 JUMP JUMPDEST PUSH2 0x51B DUP2 PUSH2 0x766 JUMP JUMPDEST DUP3 MSTORE POP POP JUMP JUMPDEST PUSH2 0x52A DUP2 PUSH2 0x754 JUMP JUMPDEST DUP3 MSTORE POP POP JUMP JUMPDEST PUSH1 0x0 PUSH2 0x53D PUSH1 0x14 DUP4 PUSH2 0x6ED JUMP JUMPDEST SWAP2 POP PUSH2 0x548 DUP3 PUSH2 0x7D1 JUMP JUMPDEST PUSH1 0x20 DUP3 ADD SWAP1 POP SWAP2 SWAP1 POP JUMP JUMPDEST PUSH1 0x0 PUSH2 0x560 PUSH1 0x0 DUP4 PUSH2 0x6E2 JUMP JUMPDEST SWAP2 POP PUSH2 0x56B DUP3 PUSH2 0x7FA JUMP JUMPDEST PUSH1 0x0 DUP3 ADD SWAP1 POP SWAP2 SWAP1 POP JUMP JUMPDEST PUSH1 0x0 PUSH2 0x583 PUSH1 0x14 DUP4 PUSH2 0x6ED JUMP JUMPDEST SWAP2 POP PUSH2 0x58E DUP3 PUSH2 0x7FD JUMP JUMPDEST PUSH1 0x20 DUP3 ADD SWAP1 POP SWAP2 SWAP1 POP JUMP JUMPDEST PUSH1 0x0 PUSH2 0x5A6 PUSH1 0x18 DUP4 PUSH2 0x6ED JUMP JUMPDEST SWAP2 POP PUSH2 0x5B1 DUP3 PUSH2 0x826 JUMP JUMPDEST PUSH1 0x20 DUP3 ADD SWAP1 POP SWAP2 SWAP1 POP JUMP JUMPDEST PUSH1 0x0 PUSH2 0x5C9 PUSH1 0x26 DUP4 PUSH2 0x6ED JUMP JUMPDEST SWAP2 POP PUSH2 0x5D4 DUP3 PUSH2 0x84F JUMP JUMPDEST PUSH1 0x40 DUP3 ADD SWAP1 POP SWAP2 SWAP1 POP JUMP JUMPDEST PUSH2 0x5E8 DUP2 PUSH2 0x798 JUMP JUMPDEST DUP3 MSTORE POP POP JUMP JUMPDEST PUSH1 0x0 PUSH2 0x5F9 DUP3 PUSH2 0x553 JUMP JUMPDEST SWAP2 POP DUP2 SWAP1 POP SWAP2 SWAP1 POP JUMP JUMPDEST PUSH1 0x0 PUSH1 0x20 DUP3 ADD SWAP1 POP PUSH2 0x618 PUSH1 0x0 DUP4 ADD DUP5 PUSH2 0x512 JUMP JUMPDEST SWAP3 SWAP2 POP POP JUMP JUMPDEST PUSH1 0x0 PUSH1 0x40 DUP3 ADD SWAP1 POP PUSH2 0x633 PUSH1 0x0 DUP4 ADD DUP6 PUSH2 0x521 JUMP JUMPDEST PUSH2 0x640 PUSH1 0x20 DUP4 ADD DUP5 PUSH2 0x5DF JUMP JUMPDEST SWAP4 SWAP3 POP POP POP JUMP JUMPDEST PUSH1 0x0 PUSH1 0x20 DUP3 ADD SWAP1 POP DUP2 DUP2 SUB PUSH1 0x0 DUP4 ADD MSTORE PUSH2 0x660 DUP2 PUSH2 0x530 JUMP JUMPDEST SWAP1 POP SWAP2 SWAP1 POP JUMP JUMPDEST PUSH1 0x0 PUSH1 0x20 DUP3 ADD SWAP1 POP DUP2 DUP2 SUB PUSH1 0x0 DUP4 ADD MSTORE PUSH2 0x680 DUP2 PUSH2 0x576 JUMP JUMPDEST SWAP1 POP SWAP2 SWAP1 POP JUMP JUMPDEST PUSH1 0x0 PUSH1 0x20 DUP3 ADD SWAP1 POP DUP2 DUP2 SUB PUSH1 0x0 DUP4 ADD MSTORE PUSH2 0x6A0 DUP2 PUSH2 0x599 JUMP JUMPDEST SWAP1 POP SWAP2 SWAP1 POP JUMP JUMPDEST PUSH1 0x0 PUSH1 0x20 DUP3 ADD SWAP1 POP DUP2 DUP2 SUB PUSH1 0x0 DUP4 ADD MSTORE PUSH2 0x6C0 DUP2 PUSH2 0x5BC JUMP JUMPDEST SWAP1 POP SWAP2 SWAP1 POP JUMP JUMPDEST PUSH1 0x0 PUSH1 0x20 DUP3 ADD SWAP1 POP PUSH2 0x6DC PUSH1 0x0 DUP4 ADD DUP5 PUSH2 0x5DF JUMP JUMPDEST SWAP3 SWAP2 POP POP JUMP JUMPDEST PUSH1 0x0 DUP2 SWAP1 POP SWAP3 SWAP2 POP POP JUMP JUMPDEST PUSH1 0x0 DUP3 DUP3 MSTORE PUSH1 0x20 DUP3 ADD SWAP1 POP SWAP3 SWAP2 POP POP JUMP JUMPDEST PUSH1 0x0 PUSH2 0x709 DUP3 PUSH2 0x798 JUMP JUMPDEST SWAP2 POP PUSH2 0x714 DUP4 PUSH2 0x798 JUMP JUMPDEST SWAP3 POP DUP3 PUSH32 0xFFFFFFFFFFFFFFFFFFFFFFFFFFFFFFFFFFFFFFFFFFFFFFFFFFFFFFFFFFFFFFFF SUB DUP3 GT ISZERO PUSH2 0x749 JUMPI PUSH2 0x748 PUSH2 0x7A2 JUMP JUMPDEST JUMPDEST DUP3 DUP3 ADD SWAP1 POP SWAP3 SWAP2 POP POP JUMP JUMPDEST PUSH1 0x0 PUSH2 0x75F DUP3 PUSH2 0x778 JUMP JUMPDEST SWAP1 POP SWAP2 SWAP1 POP JUMP JUMPDEST PUSH1 0x0 PUSH2 0x771 DUP3 PUSH2 0x778 JUMP JUMPDEST SWAP1 POP SWAP2 SWAP1 POP JUMP JUMPDEST PUSH1 0x0 PUSH20 0xFFFFFFFFFFFFFFFFFFFFFFFFFFFFFFFFFFFFFFFF DUP3 AND SWAP1 POP SWAP2 SWAP1 POP JUMP JUMPDEST PUSH1 0x0 DUP2 SWAP1 POP SWAP2 SWAP1 POP JUMP JUMPDEST PUSH32 0x4E487B7100000000000000000000000000000000000000000000000000000000 PUSH1 0x0 MSTORE PUSH1 0x11 PUSH1 0x4 MSTORE PUSH1 0x24 PUSH1 0x0 REVERT JUMPDEST PUSH32 0x4661696C656420746F2073656E64204574686572000000000000000000000000 PUSH1 0x0 DUP3 ADD MSTORE POP JUMP JUMPDEST POP JUMP JUMPDEST PUSH32 0x4E6F74206120636F6E7472616374206F776E6572000000000000000000000000 PUSH1 0x0 DUP3 ADD MSTORE POP JUMP JUMPDEST PUSH32 0x6D6178696D756D20646F6E6174696F6E20726561636865640000000000000000 PUSH1 0x0 DUP3 ADD MSTORE POP JUMP JUMPDEST PUSH32 0x74686520646F6E6174696F6E206E6565647320746F2062652068696768657220 PUSH1 0x0 DUP3 ADD MSTORE PUSH32 0x7468616E20300000000000000000000000000000000000000000000000000000 PUSH1 0x20 DUP3 ADD MSTORE POP JUMP JUMPDEST PUSH2 0x8A7 DUP2 PUSH2 0x754 JUMP JUMPDEST DUP2 EQ PUSH2 0x8B2 JUMPI PUSH1 0x0 DUP1 REVERT JUMPDEST POP JUMP JUMPDEST PUSH2 0x8BE DUP2 PUSH2 0x798 JUMP JUMPDEST DUP2 EQ PUSH2 0x8C9 JUMPI PUSH1 0x0 DUP1 REVERT JUMPDEST POP JUMP INVALID LOG2 PUSH5 0x6970667358 0x22 SLT KECCAK256 0x27 0xAF PUSH32 0x1DFC9361582DFE03A3B92818E7263E2156BA55187A2586E1E30E2F31BA64736F PUSH13 0x63430008040033000000000000 "},"methodIdentifiers":{"donate(uint256,address,address)":"37f3f7ea","getContractBalance()":"6f9fb98a","owner()":"8da5cb5b","withdraw(uint256)":"2e1a7d4d"}}}}}