{
  "_format": "hh-sol-artifact-1",
  "contractName": "CharityNature",
  "sourceName": "contracts/CharityNature.sol",
  "abi": [
    {
      "inputs": [],
      "stateMutability": "payable",
      "type": "constructor"
    },
    {
      "inputs": [
        {
          "internalType": "uint256",
          "name": "_campId",
          "type": "uint256"
        },
        {
          "internalType": "address",
          "name": "_to",
          "type": "address"
        },
        {
          "internalType": "address",
          "name": "_posup",
          "type": "address"
        }
      ],
      "name": "donate",
      "outputs": [],
      "stateMutability": "payable",
      "type": "function"
    },
    {
      "inputs": [],
      "name": "owner",
      "outputs": [
        {
          "internalType": "address payable",
          "name": "",
          "type": "address"
        }
      ],
      "stateMutability": "view",
      "type": "function"
    },
    {
      "inputs": [
        {
          "internalType": "uint256",
          "name": "_campId",
          "type": "uint256"
        }
      ],
      "name": "withdraw",
      "outputs": [],
      "stateMutability": "nonpayable",
      "type": "function"
    }
  ],
  "bytecode": "0x60806040526103e8600155336000806101000a81548173ffffffffffffffffffffffffffffffffffffffff021916908373ffffffffffffffffffffffffffffffffffffffff1602179055506108c4806100596000396000f3fe6080604052600436106100345760003560e01c80632e1a7d4d1461003957806337f3f7ea146100625780638da5cb5b1461007e575b600080fd5b34801561004557600080fd5b50610060600480360381019061005b919061045c565b6100a9565b005b61007c60048036038101906100779190610485565b61029b565b005b34801561008a57600080fd5b5061009361040e565b6040516100a091906105c5565b60405180910390f35b60008054906101000a900473ffffffffffffffffffffffffffffffffffffffff1673ffffffffffffffffffffffffffffffffffffffff163373ffffffffffffffffffffffffffffffffffffffff1614610137576040517f08c379a000000000000000000000000000000000000000000000000000000000815260040161012e90610629565b60405180910390fd5b600360009054906101000a900473ffffffffffffffffffffffffffffffffffffffff1673ffffffffffffffffffffffffffffffffffffffff166316a490d4826040518263ffffffff1660e01b81526004016101929190610689565b600060405180830381600087803b1580156101ac57600080fd5b505af11580156101c0573d6000803e3d6000fd5b50505050600047905060008060009054906101000a900473ffffffffffffffffffffffffffffffffffffffff1673ffffffffffffffffffffffffffffffffffffffff1682604051610210906105b0565b60006040518083038185875af1925050503d806000811461024d576040519150601f19603f3d011682016040523d82523d6000602084013e610252565b606091505b5050905080610296576040517f08c379a000000000000000000000000000000000000000000000000000000000815260040161028d90610609565b60405180910390fd5b505050565b60025460015410156102e2576040517f08c379a00000000000000000000000000000000000000000000000000000000081526004016102d990610649565b60405180910390fd5b60003411610325576040517f08c379a000000000000000000000000000000000000000000000000000000000815260040161031c90610669565b60405180910390fd5b80600360006101000a81548173ffffffffffffffffffffffffffffffffffffffff021916908373ffffffffffffffffffffffffffffffffffffffff1602179055503460025461037491906106c0565b600281905550600360009054906101000a900473ffffffffffffffffffffffffffffffffffffffff1673ffffffffffffffffffffffffffffffffffffffff1663a144819483856040518363ffffffff1660e01b81526004016103d79291906105e0565b600060405180830381600087803b1580156103f157600080fd5b505af1158015610405573d6000803e3d6000fd5b50505050505050565b60008054906101000a900473ffffffffffffffffffffffffffffffffffffffff1681565b60008135905061044181610860565b92915050565b60008135905061045681610877565b92915050565b60006020828403121561046e57600080fd5b600061047c84828501610447565b91505092915050565b60008060006060848603121561049a57600080fd5b60006104a886828701610447565b93505060206104b986828701610432565b92505060406104ca86828701610432565b9150509250925092565b6104dd81610728565b82525050565b6104ec81610716565b82525050565b60006104ff6014836106af565b915061050a82610793565b602082019050919050565b60006105226000836106a4565b915061052d826107bc565b600082019050919050565b60006105456014836106af565b9150610550826107bf565b602082019050919050565b60006105686018836106af565b9150610573826107e8565b602082019050919050565b600061058b6026836106af565b915061059682610811565b604082019050919050565b6105aa8161075a565b82525050565b60006105bb82610515565b9150819050919050565b60006020820190506105da60008301846104d4565b92915050565b60006040820190506105f560008301856104e3565b61060260208301846105a1565b9392505050565b60006020820190508181036000830152610622816104f2565b9050919050565b6000602082019050818103600083015261064281610538565b9050919050565b600060208201905081810360008301526106628161055b565b9050919050565b600060208201905081810360008301526106828161057e565b9050919050565b600060208201905061069e60008301846105a1565b92915050565b600081905092915050565b600082825260208201905092915050565b60006106cb8261075a565b91506106d68361075a565b9250827fffffffffffffffffffffffffffffffffffffffffffffffffffffffffffffffff0382111561070b5761070a610764565b5b828201905092915050565b60006107218261073a565b9050919050565b60006107338261073a565b9050919050565b600073ffffffffffffffffffffffffffffffffffffffff82169050919050565b6000819050919050565b7f4e487b7100000000000000000000000000000000000000000000000000000000600052601160045260246000fd5b7f4661696c656420746f2073656e64204574686572000000000000000000000000600082015250565b50565b7f4e6f74206120636f6e7472616374206f776e6572000000000000000000000000600082015250565b7f6d6178696d756d20646f6e6174696f6e20726561636865640000000000000000600082015250565b7f74686520646f6e6174696f6e206e6565647320746f206265206869676865722060008201527f7468616e20300000000000000000000000000000000000000000000000000000602082015250565b61086981610716565b811461087457600080fd5b50565b6108808161075a565b811461088b57600080fd5b5056fea26469706673582212207607612dc7c4be3c73f35c0f87603c886ffbfe6c84a45c34ac41ed483a1bd62964736f6c63430008040033",
  "linkReferences": {},
  "deployedLinkReferences": {}
}