{
  "_format": "hh-sol-artifact-1",
  "contractName": "Posup",
  "sourceName": "contracts/Posup.sol",
  "abi": [
    {
      "inputs": [],
      "stateMutability": "nonpayable",
      "type": "constructor"
    },
    {
      "anonymous": false,
      "inputs": [
        {
          "indexed": true,
          "internalType": "address",
          "name": "owner",
          "type": "address"
        },
        {
          "indexed": true,
          "internalType": "address",
          "name": "approved",
          "type": "address"
        },
        {
          "indexed": true,
          "internalType": "uint256",
          "name": "tokenId",
          "type": "uint256"
        }
      ],
      "name": "Approval",
      "type": "event"
    },
    {
      "anonymous": false,
      "inputs": [
        {
          "indexed": true,
          "internalType": "address",
          "name": "owner",
          "type": "address"
        },
        {
          "indexed": true,
          "internalType": "address",
          "name": "operator",
          "type": "address"
        },
        {
          "indexed": false,
          "internalType": "bool",
          "name": "approved",
          "type": "bool"
        }
      ],
      "name": "ApprovalForAll",
      "type": "event"
    },
    {
      "anonymous": false,
      "inputs": [
        {
          "indexed": false,
          "internalType": "uint256",
          "name": "campCounter",
          "type": "uint256"
        },
        {
          "indexed": false,
          "internalType": "string",
          "name": "_campName",
          "type": "string"
        },
        {
          "indexed": false,
          "internalType": "address",
          "name": "_campOwner",
          "type": "address"
        },
        {
          "indexed": false,
          "internalType": "string",
          "name": "_campURI",
          "type": "string"
        }
      ],
      "name": "CampAdded",
      "type": "event"
    },
    {
      "anonymous": false,
      "inputs": [
        {
          "indexed": true,
          "internalType": "address",
          "name": "previousOwner",
          "type": "address"
        },
        {
          "indexed": true,
          "internalType": "address",
          "name": "newOwner",
          "type": "address"
        }
      ],
      "name": "OwnershipTransferred",
      "type": "event"
    },
    {
      "anonymous": false,
      "inputs": [
        {
          "indexed": true,
          "internalType": "address",
          "name": "from",
          "type": "address"
        },
        {
          "indexed": true,
          "internalType": "address",
          "name": "to",
          "type": "address"
        },
        {
          "indexed": true,
          "internalType": "uint256",
          "name": "tokenId",
          "type": "uint256"
        }
      ],
      "name": "Transfer",
      "type": "event"
    },
    {
      "anonymous": false,
      "inputs": [
        {
          "indexed": false,
          "internalType": "address",
          "name": "to",
          "type": "address"
        },
        {
          "indexed": false,
          "internalType": "uint256",
          "name": "_campCounter",
          "type": "uint256"
        }
      ],
      "name": "mintPosup",
      "type": "event"
    },
    {
      "anonymous": false,
      "inputs": [
        {
          "indexed": false,
          "internalType": "address",
          "name": "to",
          "type": "address"
        },
        {
          "indexed": false,
          "internalType": "uint256",
          "name": "tokenId",
          "type": "uint256"
        },
        {
          "indexed": false,
          "internalType": "uint256",
          "name": "_campCounter",
          "type": "uint256"
        }
      ],
      "name": "posupBurn",
      "type": "event"
    },
    {
      "inputs": [
        {
          "internalType": "uint256",
          "name": "",
          "type": "uint256"
        }
      ],
      "name": "Camps",
      "outputs": [
        {
          "internalType": "uint256",
          "name": "campId",
          "type": "uint256"
        },
        {
          "internalType": "string",
          "name": "campName",
          "type": "string"
        },
        {
          "internalType": "string",
          "name": "campURI",
          "type": "string"
        },
        {
          "internalType": "address",
          "name": "campOwner",
          "type": "address"
        },
        {
          "internalType": "bool",
          "name": "isCampActive",
          "type": "bool"
        }
      ],
      "stateMutability": "view",
      "type": "function"
    },
    {
      "inputs": [
        {
          "internalType": "address",
          "name": "to",
          "type": "address"
        },
        {
          "internalType": "uint256",
          "name": "tokenId",
          "type": "uint256"
        }
      ],
      "name": "approve",
      "outputs": [],
      "stateMutability": "nonpayable",
      "type": "function"
    },
    {
      "inputs": [
        {
          "internalType": "address",
          "name": "owner",
          "type": "address"
        }
      ],
      "name": "balanceOf",
      "outputs": [
        {
          "internalType": "uint256",
          "name": "",
          "type": "uint256"
        }
      ],
      "stateMutability": "view",
      "type": "function"
    },
    {
      "inputs": [
        {
          "internalType": "address",
          "name": "to",
          "type": "address"
        },
        {
          "internalType": "uint256",
          "name": "tokenId",
          "type": "uint256"
        },
        {
          "internalType": "uint256",
          "name": "_campCounter",
          "type": "uint256"
        }
      ],
      "name": "burnAnDTransfer",
      "outputs": [],
      "stateMutability": "nonpayable",
      "type": "function"
    },
    {
      "inputs": [
        {
          "internalType": "uint256",
          "name": "_campCounter",
          "type": "uint256"
        }
      ],
      "name": "closeCamp",
      "outputs": [],
      "stateMutability": "nonpayable",
      "type": "function"
    },
    {
      "inputs": [
        {
          "internalType": "string",
          "name": "_campName",
          "type": "string"
        },
        {
          "internalType": "address",
          "name": "_campOwner",
          "type": "address"
        },
        {
          "internalType": "string",
          "name": "_campURI",
          "type": "string"
        }
      ],
      "name": "createCamp",
      "outputs": [],
      "stateMutability": "nonpayable",
      "type": "function"
    },
    {
      "inputs": [
        {
          "internalType": "uint256",
          "name": "tokenId",
          "type": "uint256"
        }
      ],
      "name": "getApproved",
      "outputs": [
        {
          "internalType": "address",
          "name": "",
          "type": "address"
        }
      ],
      "stateMutability": "view",
      "type": "function"
    },
    {
      "inputs": [
        {
          "internalType": "address",
          "name": "owner",
          "type": "address"
        },
        {
          "internalType": "address",
          "name": "operator",
          "type": "address"
        }
      ],
      "name": "isApprovedForAll",
      "outputs": [
        {
          "internalType": "bool",
          "name": "",
          "type": "bool"
        }
      ],
      "stateMutability": "view",
      "type": "function"
    },
    {
      "inputs": [
        {
          "internalType": "uint256",
          "name": "_campCounter",
          "type": "uint256"
        },
        {
          "internalType": "bool",
          "name": "_manage",
          "type": "bool"
        }
      ],
      "name": "manageCamp",
      "outputs": [],
      "stateMutability": "nonpayable",
      "type": "function"
    },
    {
      "inputs": [],
      "name": "name",
      "outputs": [
        {
          "internalType": "string",
          "name": "",
          "type": "string"
        }
      ],
      "stateMutability": "view",
      "type": "function"
    },
    {
      "inputs": [],
      "name": "owner",
      "outputs": [
        {
          "internalType": "address",
          "name": "",
          "type": "address"
        }
      ],
      "stateMutability": "view",
      "type": "function"
    },
    {
      "inputs": [
        {
          "internalType": "uint256",
          "name": "tokenId",
          "type": "uint256"
        }
      ],
      "name": "ownerOf",
      "outputs": [
        {
          "internalType": "address",
          "name": "",
          "type": "address"
        }
      ],
      "stateMutability": "view",
      "type": "function"
    },
    {
      "inputs": [],
      "name": "renounceOwnership",
      "outputs": [],
      "stateMutability": "nonpayable",
      "type": "function"
    },
    {
      "inputs": [
        {
          "internalType": "address",
          "name": "to",
          "type": "address"
        },
        {
          "internalType": "uint256",
          "name": "_campCounter",
          "type": "uint256"
        }
      ],
      "name": "safeMint",
      "outputs": [],
      "stateMutability": "nonpayable",
      "type": "function"
    },
    {
      "inputs": [
        {
          "internalType": "address",
          "name": "from",
          "type": "address"
        },
        {
          "internalType": "address",
          "name": "to",
          "type": "address"
        },
        {
          "internalType": "uint256",
          "name": "tokenId",
          "type": "uint256"
        }
      ],
      "name": "safeTransferFrom",
      "outputs": [],
      "stateMutability": "nonpayable",
      "type": "function"
    },
    {
      "inputs": [
        {
          "internalType": "address",
          "name": "from",
          "type": "address"
        },
        {
          "internalType": "address",
          "name": "to",
          "type": "address"
        },
        {
          "internalType": "uint256",
          "name": "tokenId",
          "type": "uint256"
        },
        {
          "internalType": "bytes",
          "name": "data",
          "type": "bytes"
        }
      ],
      "name": "safeTransferFrom",
      "outputs": [],
      "stateMutability": "nonpayable",
      "type": "function"
    },
    {
      "inputs": [
        {
          "internalType": "address",
          "name": "operator",
          "type": "address"
        },
        {
          "internalType": "bool",
          "name": "approved",
          "type": "bool"
        }
      ],
      "name": "setApprovalForAll",
      "outputs": [],
      "stateMutability": "nonpayable",
      "type": "function"
    },
    {
      "inputs": [
        {
          "internalType": "uint256",
          "name": "_campCounter",
          "type": "uint256"
        },
        {
          "internalType": "string",
          "name": "_campURI",
          "type": "string"
        }
      ],
      "name": "setCampURI",
      "outputs": [],
      "stateMutability": "nonpayable",
      "type": "function"
    },
    {
      "inputs": [
        {
          "internalType": "bytes4",
          "name": "interfaceId",
          "type": "bytes4"
        }
      ],
      "name": "supportsInterface",
      "outputs": [
        {
          "internalType": "bool",
          "name": "",
          "type": "bool"
        }
      ],
      "stateMutability": "view",
      "type": "function"
    },
    {
      "inputs": [],
      "name": "symbol",
      "outputs": [
        {
          "internalType": "string",
          "name": "",
          "type": "string"
        }
      ],
      "stateMutability": "view",
      "type": "function"
    },
    {
      "inputs": [
        {
          "internalType": "uint256",
          "name": "index",
          "type": "uint256"
        }
      ],
      "name": "tokenByIndex",
      "outputs": [
        {
          "internalType": "uint256",
          "name": "",
          "type": "uint256"
        }
      ],
      "stateMutability": "view",
      "type": "function"
    },
    {
      "inputs": [
        {
          "internalType": "address",
          "name": "owner",
          "type": "address"
        },
        {
          "internalType": "uint256",
          "name": "index",
          "type": "uint256"
        }
      ],
      "name": "tokenOfOwnerByIndex",
      "outputs": [
        {
          "internalType": "uint256",
          "name": "",
          "type": "uint256"
        }
      ],
      "stateMutability": "view",
      "type": "function"
    },
    {
      "inputs": [
        {
          "internalType": "uint256",
          "name": "tokenId",
          "type": "uint256"
        }
      ],
      "name": "tokenURI",
      "outputs": [
        {
          "internalType": "string",
          "name": "",
          "type": "string"
        }
      ],
      "stateMutability": "view",
      "type": "function"
    },
    {
      "inputs": [],
      "name": "totalSupply",
      "outputs": [
        {
          "internalType": "uint256",
          "name": "",
          "type": "uint256"
        }
      ],
      "stateMutability": "view",
      "type": "function"
    },
    {
      "inputs": [
        {
          "internalType": "address",
          "name": "from",
          "type": "address"
        },
        {
          "internalType": "address",
          "name": "to",
          "type": "address"
        },
        {
          "internalType": "uint256",
          "name": "tokenId",
          "type": "uint256"
        }
      ],
      "name": "transferFrom",
      "outputs": [],
      "stateMutability": "nonpayable",
      "type": "function"
    },
    {
      "inputs": [
        {
          "internalType": "address",
          "name": "newOwner",
          "type": "address"
        }
      ],
      "name": "transferOwnership",
      "outputs": [],
      "stateMutability": "nonpayable",
      "type": "function"
    }
  ],
  "bytecode": "0x60806040523480156200001157600080fd5b506040518060400160405280600581526020017f506f7375700000000000000000000000000000000000000000000000000000008152506040518060400160405280600581526020017f504f535550000000000000000000000000000000000000000000000000000000815250816000908051906020019062000096929190620001a6565b508060019080519060200190620000af929190620001a6565b505050620000d2620000c6620000d860201b60201c565b620000e060201b60201c565b620002bb565b600033905090565b6000600b60009054906101000a900473ffffffffffffffffffffffffffffffffffffffff16905081600b60006101000a81548173ffffffffffffffffffffffffffffffffffffffff021916908373ffffffffffffffffffffffffffffffffffffffff1602179055508173ffffffffffffffffffffffffffffffffffffffff168173ffffffffffffffffffffffffffffffffffffffff167f8be0079c531659141344cd1fd0a4f28419497f9722a3daafe3b4186f6b6457e060405160405180910390a35050565b828054620001b49062000256565b90600052602060002090601f016020900481019282620001d8576000855562000224565b82601f10620001f357805160ff191683800117855562000224565b8280016001018555821562000224579182015b828111156200022357825182559160200191906001019062000206565b5b50905062000233919062000237565b5090565b5b808211156200025257600081600090555060010162000238565b5090565b600060028204905060018216806200026f57607f821691505b602082108114156200028657620002856200028c565b5b50919050565b7f4e487b7100000000000000000000000000000000000000000000000000000000600052602260045260246000fd5b61431f80620002cb6000396000f3fe608060405234801561001057600080fd5b506004361061018e5760003560e01c806370a08231116100de578063a22cb46511610097578063c87b56dd11610071578063c87b56dd14610481578063cb706ebb146104b1578063e985e9c5146104cd578063f2fde38b146104fd5761018e565b8063a22cb4651461042d578063b5bc6d1514610449578063b88d4fde146104655761018e565b806370a082311461037f578063715018a6146103af5780638da5cb5b146103b957806395d89b41146103d75780639d81e096146103f5578063a1448194146104115761018e565b80632395dde81161014b57806342842e0e1161012557806342842e0e146102e75780634b6982ff146103035780634f6ccce71461031f5780636352211e1461034f5761018e565b80632395dde81461026757806323b872dd1461029b5780632f745c59146102b75761018e565b806301ffc9a71461019357806306fdde03146101c3578063081812fc146101e1578063095ea7b31461021157806316a490d41461022d57806318160ddd14610249575b600080fd5b6101ad60048036038101906101a8919061308b565b610519565b6040516101ba9190613669565b60405180910390f35b6101cb61052b565b6040516101d89190613684565b60405180910390f35b6101fb60048036038101906101f6919061315c565b6105bd565b60405161020891906135a2565b60405180910390f35b61022b60048036038101906102269190613000565b610603565b005b6102476004803603810190610242919061315c565b61071b565b005b6102516107f3565b60405161025e9190613906565b60405180910390f35b610281600480360381019061027c919061315c565b610800565b604051610292959493929190613974565b60405180910390f35b6102b560048036038101906102b09190612efa565b610973565b005b6102d160048036038101906102cc9190613000565b6109d3565b6040516102de9190613906565b60405180910390f35b61030160048036038101906102fc9190612efa565b610a78565b005b61031d600480360381019061031891906131c1565b610a98565b005b6103396004803603810190610334919061315c565b610b6d565b6040516103469190613906565b60405180910390f35b6103696004803603810190610364919061315c565b610c04565b60405161037691906135a2565b60405180910390f35b61039960048036038101906103949190612e95565b610cb6565b6040516103a69190613906565b60405180910390f35b6103b7610d6e565b005b6103c1610d82565b6040516103ce91906135a2565b60405180910390f35b6103df610dac565b6040516103ec9190613684565b60405180910390f35b61040f600480360381019061040a919061303c565b610e3e565b005b61042b60048036038101906104269190613000565b610f41565b005b61044760048036038101906104429190612fc4565b611154565b005b610463600480360381019061045e9190613185565b61116a565b005b61047f600480360381019061047a9190612f49565b6111a4565b005b61049b6004803603810190610496919061315c565b611206565b6040516104a89190613684565b60405180910390f35b6104cb60048036038101906104c691906130dd565b611218565b005b6104e760048036038101906104e29190612ebe565b61136e565b6040516104f49190613669565b60405180910390f35b61051760048036038101906105129190612e95565b611402565b005b600061052482611486565b9050919050565b60606000805461053a90613c10565b80601f016020809104026020016040519081016040528092919081815260200182805461056690613c10565b80156105b35780601f10610588576101008083540402835291602001916105b3565b820191906000526020600020905b81548152906001019060200180831161059657829003601f168201915b5050505050905090565b60006105c882611500565b6004600083815260200190815260200160002060009054906101000a900473ffffffffffffffffffffffffffffffffffffffff169050919050565b600061060e82610c04565b90508073ffffffffffffffffffffffffffffffffffffffff168373ffffffffffffffffffffffffffffffffffffffff16141561067f576040517f08c379a000000000000000000000000000000000000000000000000000000000815260040161067690613886565b60405180910390fd5b8073ffffffffffffffffffffffffffffffffffffffff1661069e61154b565b73ffffffffffffffffffffffffffffffffffffffff1614806106cd57506106cc816106c761154b565b61136e565b5b61070c576040517f08c379a000000000000000000000000000000000000000000000000000000000815260040161070390613806565b60405180910390fd5b6107168383611553565b505050565b80600e600082815260200190815260200160002060030160009054906101000a900473ffffffffffffffffffffffffffffffffffffffff1673ffffffffffffffffffffffffffffffffffffffff163373ffffffffffffffffffffffffffffffffffffffff16146107c0576040517f08c379a00000000000000000000000000000000000000000000000000000000081526004016107b7906138a6565b60405180910390fd5b6000600e600084815260200190815260200160002060030160146101000a81548160ff0219169083151502179055505050565b6000600880549050905090565b600e60205280600052604060002060009150905080600001549080600101805461082990613c10565b80601f016020809104026020016040519081016040528092919081815260200182805461085590613c10565b80156108a25780601f10610877576101008083540402835291602001916108a2565b820191906000526020600020905b81548152906001019060200180831161088557829003601f168201915b5050505050908060020180546108b790613c10565b80601f01602080910402602001604051908101604052809291908181526020018280546108e390613c10565b80156109305780601f1061090557610100808354040283529160200191610930565b820191906000526020600020905b81548152906001019060200180831161091357829003601f168201915b5050505050908060030160009054906101000a900473ffffffffffffffffffffffffffffffffffffffff16908060030160149054906101000a900460ff16905085565b61098461097e61154b565b8261160c565b6109c3576040517f08c379a00000000000000000000000000000000000000000000000000000000081526004016109ba906138e6565b60405180910390fd5b6109ce8383836116a1565b505050565b60006109de83610cb6565b8210610a1f576040517f08c379a0000000000000000000000000000000000000000000000000000000008152600401610a16906136a6565b60405180910390fd5b600660008473ffffffffffffffffffffffffffffffffffffffff1673ffffffffffffffffffffffffffffffffffffffff168152602001908152602001600020600083815260200190815260200160002054905092915050565b610a93838383604051806020016040528060008152506111a4565b505050565b81600e600082815260200190815260200160002060030160009054906101000a900473ffffffffffffffffffffffffffffffffffffffff1673ffffffffffffffffffffffffffffffffffffffff163373ffffffffffffffffffffffffffffffffffffffff1614610b3d576040517f08c379a0000000000000000000000000000000000000000000000000000000008152600401610b34906138a6565b60405180910390fd5b81600e60008581526020019081526020016000206002019080519060200190610b67929190612c79565b50505050565b6000610b776107f3565b8210610bb8576040517f08c379a0000000000000000000000000000000000000000000000000000000008152600401610baf906138c6565b60405180910390fd5b60088281548110610bf2577f4e487b7100000000000000000000000000000000000000000000000000000000600052603260045260246000fd5b90600052602060002001549050919050565b6000806002600084815260200190815260200160002060009054906101000a900473ffffffffffffffffffffffffffffffffffffffff169050600073ffffffffffffffffffffffffffffffffffffffff168173ffffffffffffffffffffffffffffffffffffffff161415610cad576040517f08c379a0000000000000000000000000000000000000000000000000000000008152600401610ca490613866565b60405180910390fd5b80915050919050565b60008073ffffffffffffffffffffffffffffffffffffffff168273ffffffffffffffffffffffffffffffffffffffff161415610d27576040517f08c379a0000000000000000000000000000000000000000000000000000000008152600401610d1e906137c6565b60405180910390fd5b600360008373ffffffffffffffffffffffffffffffffffffffff1673ffffffffffffffffffffffffffffffffffffffff168152602001908152602001600020549050919050565b610d76611908565b610d806000611986565b565b6000600b60009054906101000a900473ffffffffffffffffffffffffffffffffffffffff16905090565b606060018054610dbb90613c10565b80601f0160208091040260200160405190810160405280929190818152602001828054610de790613c10565b8015610e345780601f10610e0957610100808354040283529160200191610e34565b820191906000526020600020905b815481529060010190602001808311610e1757829003601f168201915b5050505050905090565b610e46611908565b610e4f82611a4c565b610e598383611a58565b610f0182600e60008481526020019081526020016000206002018054610e7e90613c10565b80601f0160208091040260200160405190810160405280929190818152602001828054610eaa90613c10565b8015610ef75780601f10610ecc57610100808354040283529160200191610ef7565b820191906000526020600020905b815481529060010190602001808311610eda57829003601f168201915b5050505050611a76565b7fe9699f537b338563171632e2d0ae9e6aa636c2133b24ab33ff716e7eda3765b6838383604051610f3493929190613632565b60405180910390a1505050565b80600e600082815260200190815260200160002060030160009054906101000a900473ffffffffffffffffffffffffffffffffffffffff1673ffffffffffffffffffffffffffffffffffffffff163373ffffffffffffffffffffffffffffffffffffffff1614610fe6576040517f08c379a0000000000000000000000000000000000000000000000000000000008152600401610fdd906138a6565b60405180910390fd5b600e6000600d54815260200190815260200160002060030160149054906101000a900460ff1661104b576040517f08c379a0000000000000000000000000000000000000000000000000000000008152600401611042906136c6565b60405180910390fd5b6000611057600c611aea565b9050611063600c611af8565b61106d8482611a58565b61111581600e6000868152602001908152602001600020600201805461109290613c10565b80601f01602080910402602001604051908101604052809291908181526020018280546110be90613c10565b801561110b5780601f106110e05761010080835404028352916020019161110b565b820191906000526020600020905b8154815290600101906020018083116110ee57829003601f168201915b5050505050611a76565b7ff47d32fedd755460d26c3b3220d0c7f653232fe9bcf819b8bbf561f0d7a956568482604051611146929190613609565b60405180910390a150505050565b61116661115f61154b565b8383611b0e565b5050565b611172611908565b80600e600084815260200190815260200160002060030160146101000a81548160ff0219169083151502179055505050565b6111b56111af61154b565b8361160c565b6111f4576040517f08c379a00000000000000000000000000000000000000000000000000000000081526004016111eb906138e6565b60405180910390fd5b61120084848484611c7b565b50505050565b606061121182611cd7565b9050919050565b600d600081548092919061122b90613c73565b9190505550600e6000600d548152602001908152602001600020600001600081548092919061125990613c73565b91905055600e6000600d5481526020019081526020016000206000018190555082600e6000600d54815260200190815260200160002060010190805190602001906112a5929190612c79565b5081600e6000600d54815260200190815260200160002060030160006101000a81548173ffffffffffffffffffffffffffffffffffffffff021916908373ffffffffffffffffffffffffffffffffffffffff16021790555080600e6000600d5481526020019081526020016000206002019080519060200190611329929190612c79565b507f61e7fe044b44d3b64b12eac0620ed5ff15fed33fc30f42c8a34c4b41331fe67b600d548484846040516113619493929190613921565b60405180910390a1505050565b6000600560008473ffffffffffffffffffffffffffffffffffffffff1673ffffffffffffffffffffffffffffffffffffffff16815260200190815260200160002060008373ffffffffffffffffffffffffffffffffffffffff1673ffffffffffffffffffffffffffffffffffffffff16815260200190815260200160002060009054906101000a900460ff16905092915050565b61140a611908565b600073ffffffffffffffffffffffffffffffffffffffff168173ffffffffffffffffffffffffffffffffffffffff16141561147a576040517f08c379a000000000000000000000000000000000000000000000000000000000815260040161147190613706565b60405180910390fd5b61148381611986565b50565b60007f780e9d63000000000000000000000000000000000000000000000000000000007bffffffffffffffffffffffffffffffffffffffffffffffffffffffff1916827bffffffffffffffffffffffffffffffffffffffffffffffffffffffff191614806114f957506114f882611dea565b5b9050919050565b61150981611ecc565b611548576040517f08c379a000000000000000000000000000000000000000000000000000000000815260040161153f90613866565b60405180910390fd5b50565b600033905090565b816004600083815260200190815260200160002060006101000a81548173ffffffffffffffffffffffffffffffffffffffff021916908373ffffffffffffffffffffffffffffffffffffffff160217905550808273ffffffffffffffffffffffffffffffffffffffff166115c683610c04565b73ffffffffffffffffffffffffffffffffffffffff167f8c5be1e5ebec7d5bd14f71427d1e84f3dd0314c0f7b2291e5b200ac8c7c3b92560405160405180910390a45050565b60008061161883610c04565b90508073ffffffffffffffffffffffffffffffffffffffff168473ffffffffffffffffffffffffffffffffffffffff16148061165a5750611659818561136e565b5b8061169857508373ffffffffffffffffffffffffffffffffffffffff16611680846105bd565b73ffffffffffffffffffffffffffffffffffffffff16145b91505092915050565b8273ffffffffffffffffffffffffffffffffffffffff166116c182610c04565b73ffffffffffffffffffffffffffffffffffffffff1614611717576040517f08c379a000000000000000000000000000000000000000000000000000000000815260040161170e90613726565b60405180910390fd5b600073ffffffffffffffffffffffffffffffffffffffff168273ffffffffffffffffffffffffffffffffffffffff161415611787576040517f08c379a000000000000000000000000000000000000000000000000000000000815260040161177e90613786565b60405180910390fd5b611792838383611f38565b61179d600082611553565b6001600360008573ffffffffffffffffffffffffffffffffffffffff1673ffffffffffffffffffffffffffffffffffffffff16815260200190815260200160002060008282546117ed9190613b26565b925050819055506001600360008473ffffffffffffffffffffffffffffffffffffffff1673ffffffffffffffffffffffffffffffffffffffff16815260200190815260200160002060008282546118449190613a9f565b92505081905550816002600083815260200190815260200160002060006101000a81548173ffffffffffffffffffffffffffffffffffffffff021916908373ffffffffffffffffffffffffffffffffffffffff160217905550808273ffffffffffffffffffffffffffffffffffffffff168473ffffffffffffffffffffffffffffffffffffffff167fddf252ad1be2c89b69c2b068fc378daa952ba7f163c4a11628f55a4df523b3ef60405160405180910390a4611903838383611fee565b505050565b61191061154b565b73ffffffffffffffffffffffffffffffffffffffff1661192e610d82565b73ffffffffffffffffffffffffffffffffffffffff1614611984576040517f08c379a000000000000000000000000000000000000000000000000000000000815260040161197b90613846565b60405180910390fd5b565b6000600b60009054906101000a900473ffffffffffffffffffffffffffffffffffffffff16905081600b60006101000a81548173ffffffffffffffffffffffffffffffffffffffff021916908373ffffffffffffffffffffffffffffffffffffffff1602179055508173ffffffffffffffffffffffffffffffffffffffff168173ffffffffffffffffffffffffffffffffffffffff167f8be0079c531659141344cd1fd0a4f28419497f9722a3daafe3b4186f6b6457e060405160405180910390a35050565b611a5581611ff3565b50565b611a72828260405180602001604052806000815250612046565b5050565b611a7f82611ecc565b611abe576040517f08c379a0000000000000000000000000000000000000000000000000000000008152600401611ab5906137e6565b60405180910390fd5b80600a60008481526020019081526020016000209080519060200190611ae5929190612c79565b505050565b600081600001549050919050565b6001816000016000828254019250508190555050565b8173ffffffffffffffffffffffffffffffffffffffff168373ffffffffffffffffffffffffffffffffffffffff161415611b7d576040517f08c379a0000000000000000000000000000000000000000000000000000000008152600401611b74906137a6565b60405180910390fd5b80600560008573ffffffffffffffffffffffffffffffffffffffff1673ffffffffffffffffffffffffffffffffffffffff16815260200190815260200160002060008473ffffffffffffffffffffffffffffffffffffffff1673ffffffffffffffffffffffffffffffffffffffff16815260200190815260200160002060006101000a81548160ff0219169083151502179055508173ffffffffffffffffffffffffffffffffffffffff168373ffffffffffffffffffffffffffffffffffffffff167f17307eab39ab6107e8899845ad3d59bd9653f200f220920489ca2b5937696c3183604051611c6e9190613669565b60405180910390a3505050565b611c868484846116a1565b611c92848484846120a1565b611cd1576040517f08c379a0000000000000000000000000000000000000000000000000000000008152600401611cc8906136e6565b60405180910390fd5b50505050565b6060611ce282611500565b6000600a60008481526020019081526020016000208054611d0290613c10565b80601f0160208091040260200160405190810160405280929190818152602001828054611d2e90613c10565b8015611d7b5780601f10611d5057610100808354040283529160200191611d7b565b820191906000526020600020905b815481529060010190602001808311611d5e57829003601f168201915b505050505090506000611d8c612238565b9050600081511415611da2578192505050611de5565b600082511115611dd7578082604051602001611dbf92919061357e565b60405160208183030381529060405292505050611de5565b611de08461224f565b925050505b919050565b60007f80ac58cd000000000000000000000000000000000000000000000000000000007bffffffffffffffffffffffffffffffffffffffffffffffffffffffff1916827bffffffffffffffffffffffffffffffffffffffffffffffffffffffff19161480611eb557507f5b5e139f000000000000000000000000000000000000000000000000000000007bffffffffffffffffffffffffffffffffffffffffffffffffffffffff1916827bffffffffffffffffffffffffffffffffffffffffffffffffffffffff1916145b80611ec55750611ec4826122b7565b5b9050919050565b60008073ffffffffffffffffffffffffffffffffffffffff166002600084815260200190815260200160002060009054906101000a900473ffffffffffffffffffffffffffffffffffffffff1673ffffffffffffffffffffffffffffffffffffffff1614159050919050565b600073ffffffffffffffffffffffffffffffffffffffff168373ffffffffffffffffffffffffffffffffffffffff161480611f9f5750600073ffffffffffffffffffffffffffffffffffffffff168273ffffffffffffffffffffffffffffffffffffffff16145b611fde576040517f08c379a0000000000000000000000000000000000000000000000000000000008152600401611fd590613766565b60405180910390fd5b611fe9838383612321565b505050565b505050565b611ffc81612435565b6000600a6000838152602001908152602001600020805461201c90613c10565b90501461204357600a600082815260200190815260200160002060006120429190612cff565b5b50565b6120508383612552565b61205d60008484846120a1565b61209c576040517f08c379a0000000000000000000000000000000000000000000000000000000008152600401612093906136e6565b60405180910390fd5b505050565b60006120c28473ffffffffffffffffffffffffffffffffffffffff1661272c565b1561222b578373ffffffffffffffffffffffffffffffffffffffff1663150b7a026120eb61154b565b8786866040518563ffffffff1660e01b815260040161210d94939291906135bd565b602060405180830381600087803b15801561212757600080fd5b505af192505050801561215857506040513d601f19601f8201168201806040525081019061215591906130b4565b60015b6121db573d8060008114612188576040519150601f19603f3d011682016040523d82523d6000602084013e61218d565b606091505b506000815114156121d3576040517f08c379a00000000000000000000000000000000000000000000000000000000081526004016121ca906136e6565b60405180910390fd5b805181602001fd5b63150b7a0260e01b7bffffffffffffffffffffffffffffffffffffffffffffffffffffffff1916817bffffffffffffffffffffffffffffffffffffffffffffffffffffffff191614915050612230565b600190505b949350505050565b606060405180602001604052806000815250905090565b606061225a82611500565b6000612264612238565b9050600081511161228457604051806020016040528060008152506122af565b8061228e8461274f565b60405160200161229f92919061357e565b6040516020818303038152906040525b915050919050565b60007f01ffc9a7000000000000000000000000000000000000000000000000000000007bffffffffffffffffffffffffffffffffffffffffffffffffffffffff1916827bffffffffffffffffffffffffffffffffffffffffffffffffffffffff1916149050919050565b61232c8383836128fc565b600073ffffffffffffffffffffffffffffffffffffffff168373ffffffffffffffffffffffffffffffffffffffff16141561236f5761236a81612901565b6123ae565b8173ffffffffffffffffffffffffffffffffffffffff168373ffffffffffffffffffffffffffffffffffffffff16146123ad576123ac838261294a565b5b5b600073ffffffffffffffffffffffffffffffffffffffff168273ffffffffffffffffffffffffffffffffffffffff1614156123f1576123ec81612ab7565b612430565b8273ffffffffffffffffffffffffffffffffffffffff168273ffffffffffffffffffffffffffffffffffffffff161461242f5761242e8282612bfa565b5b5b505050565b600061244082610c04565b905061244e81600084611f38565b612459600083611553565b6001600360008373ffffffffffffffffffffffffffffffffffffffff1673ffffffffffffffffffffffffffffffffffffffff16815260200190815260200160002060008282546124a99190613b26565b925050819055506002600083815260200190815260200160002060006101000a81549073ffffffffffffffffffffffffffffffffffffffff021916905581600073ffffffffffffffffffffffffffffffffffffffff168273ffffffffffffffffffffffffffffffffffffffff167fddf252ad1be2c89b69c2b068fc378daa952ba7f163c4a11628f55a4df523b3ef60405160405180910390a461254e81600084611fee565b5050565b600073ffffffffffffffffffffffffffffffffffffffff168273ffffffffffffffffffffffffffffffffffffffff1614156125c2576040517f08c379a00000000000000000000000000000000000000000000000000000000081526004016125b990613826565b60405180910390fd5b6125cb81611ecc565b1561260b576040517f08c379a000000000000000000000000000000000000000000000000000000000815260040161260290613746565b60405180910390fd5b61261760008383611f38565b6001600360008473ffffffffffffffffffffffffffffffffffffffff1673ffffffffffffffffffffffffffffffffffffffff16815260200190815260200160002060008282546126679190613a9f565b92505081905550816002600083815260200190815260200160002060006101000a81548173ffffffffffffffffffffffffffffffffffffffff021916908373ffffffffffffffffffffffffffffffffffffffff160217905550808273ffffffffffffffffffffffffffffffffffffffff16600073ffffffffffffffffffffffffffffffffffffffff167fddf252ad1be2c89b69c2b068fc378daa952ba7f163c4a11628f55a4df523b3ef60405160405180910390a461272860008383611fee565b5050565b6000808273ffffffffffffffffffffffffffffffffffffffff163b119050919050565b60606000821415612797576040518060400160405280600181526020017f300000000000000000000000000000000000000000000000000000000000000081525090506128f7565b600082905060005b600082146127c95780806127b290613c73565b915050600a826127c29190613af5565b915061279f565b60008167ffffffffffffffff81111561280b577f4e487b7100000000000000000000000000000000000000000000000000000000600052604160045260246000fd5b6040519080825280601f01601f19166020018201604052801561283d5781602001600182028036833780820191505090505b5090505b600085146128f0576001826128569190613b26565b9150600a856128659190613cbc565b60306128719190613a9f565b60f81b8183815181106128ad577f4e487b7100000000000000000000000000000000000000000000000000000000600052603260045260246000fd5b60200101907effffffffffffffffffffffffffffffffffffffffffffffffffffffffffffff1916908160001a905350600a856128e99190613af5565b9450612841565b8093505050505b919050565b505050565b6008805490506009600083815260200190815260200160002081905550600881908060018154018082558091505060019003906000526020600020016000909190919091505550565b6000600161295784610cb6565b6129619190613b26565b9050600060076000848152602001908152602001600020549050818114612a46576000600660008673ffffffffffffffffffffffffffffffffffffffff1673ffffffffffffffffffffffffffffffffffffffff168152602001908152602001600020600084815260200190815260200160002054905080600660008773ffffffffffffffffffffffffffffffffffffffff1673ffffffffffffffffffffffffffffffffffffffff168152602001908152602001600020600084815260200190815260200160002081905550816007600083815260200190815260200160002081905550505b6007600084815260200190815260200160002060009055600660008573ffffffffffffffffffffffffffffffffffffffff1673ffffffffffffffffffffffffffffffffffffffff16815260200190815260200160002060008381526020019081526020016000206000905550505050565b60006001600880549050612acb9190613b26565b9050600060096000848152602001908152602001600020549050600060088381548110612b21577f4e487b7100000000000000000000000000000000000000000000000000000000600052603260045260246000fd5b906000526020600020015490508060088381548110612b69577f4e487b7100000000000000000000000000000000000000000000000000000000600052603260045260246000fd5b906000526020600020018190555081600960008381526020019081526020016000208190555060096000858152602001908152602001600020600090556008805480612bde577f4e487b7100000000000000000000000000000000000000000000000000000000600052603160045260246000fd5b6001900381819060005260206000200160009055905550505050565b6000612c0583610cb6565b905081600660008573ffffffffffffffffffffffffffffffffffffffff1673ffffffffffffffffffffffffffffffffffffffff168152602001908152602001600020600083815260200190815260200160002081905550806007600084815260200190815260200160002081905550505050565b828054612c8590613c10565b90600052602060002090601f016020900481019282612ca75760008555612cee565b82601f10612cc057805160ff1916838001178555612cee565b82800160010185558215612cee579182015b82811115612ced578251825591602001919060010190612cd2565b5b509050612cfb9190612d3f565b5090565b508054612d0b90613c10565b6000825580601f10612d1d5750612d3c565b601f016020900490600052602060002090810190612d3b9190612d3f565b5b50565b5b80821115612d58576000816000905550600101612d40565b5090565b6000612d6f612d6a846139fa565b6139d5565b905082815260208101848484011115612d8757600080fd5b612d92848285613bce565b509392505050565b6000612dad612da884613a2b565b6139d5565b905082815260208101848484011115612dc557600080fd5b612dd0848285613bce565b509392505050565b600081359050612de78161428d565b92915050565b600081359050612dfc816142a4565b92915050565b600081359050612e11816142bb565b92915050565b600081519050612e26816142bb565b92915050565b600082601f830112612e3d57600080fd5b8135612e4d848260208601612d5c565b91505092915050565b600082601f830112612e6757600080fd5b8135612e77848260208601612d9a565b91505092915050565b600081359050612e8f816142d2565b92915050565b600060208284031215612ea757600080fd5b6000612eb584828501612dd8565b91505092915050565b60008060408385031215612ed157600080fd5b6000612edf85828601612dd8565b9250506020612ef085828601612dd8565b9150509250929050565b600080600060608486031215612f0f57600080fd5b6000612f1d86828701612dd8565b9350506020612f2e86828701612dd8565b9250506040612f3f86828701612e80565b9150509250925092565b60008060008060808587031215612f5f57600080fd5b6000612f6d87828801612dd8565b9450506020612f7e87828801612dd8565b9350506040612f8f87828801612e80565b925050606085013567ffffffffffffffff811115612fac57600080fd5b612fb887828801612e2c565b91505092959194509250565b60008060408385031215612fd757600080fd5b6000612fe585828601612dd8565b9250506020612ff685828601612ded565b9150509250929050565b6000806040838503121561301357600080fd5b600061302185828601612dd8565b925050602061303285828601612e80565b9150509250929050565b60008060006060848603121561305157600080fd5b600061305f86828701612dd8565b935050602061307086828701612e80565b925050604061308186828701612e80565b9150509250925092565b60006020828403121561309d57600080fd5b60006130ab84828501612e02565b91505092915050565b6000602082840312156130c657600080fd5b60006130d484828501612e17565b91505092915050565b6000806000606084860312156130f257600080fd5b600084013567ffffffffffffffff81111561310c57600080fd5b61311886828701612e56565b935050602061312986828701612dd8565b925050604084013567ffffffffffffffff81111561314657600080fd5b61315286828701612e56565b9150509250925092565b60006020828403121561316e57600080fd5b600061317c84828501612e80565b91505092915050565b6000806040838503121561319857600080fd5b60006131a685828601612e80565b92505060206131b785828601612ded565b9150509250929050565b600080604083850312156131d457600080fd5b60006131e285828601612e80565b925050602083013567ffffffffffffffff8111156131ff57600080fd5b61320b85828601612e56565b9150509250929050565b61321e81613b5a565b82525050565b61322d81613b6c565b82525050565b600061323e82613a5c565b6132488185613a72565b9350613258818560208601613bdd565b61326181613da9565b840191505092915050565b600061327782613a67565b6132818185613a83565b9350613291818560208601613bdd565b61329a81613da9565b840191505092915050565b60006132b082613a67565b6132ba8185613a94565b93506132ca818560208601613bdd565b80840191505092915050565b60006132e3602b83613a83565b91506132ee82613dba565b604082019050919050565b6000613306601983613a83565b915061331182613e09565b602082019050919050565b6000613329603283613a83565b915061333482613e32565b604082019050919050565b600061334c602683613a83565b915061335782613e81565b604082019050919050565b600061336f602583613a83565b915061337a82613ed0565b604082019050919050565b6000613392601c83613a83565b915061339d82613f1f565b602082019050919050565b60006133b5603583613a83565b91506133c082613f48565b604082019050919050565b60006133d8602483613a83565b91506133e382613f97565b604082019050919050565b60006133fb601983613a83565b915061340682613fe6565b602082019050919050565b600061341e602983613a83565b91506134298261400f565b604082019050919050565b6000613441602e83613a83565b915061344c8261405e565b604082019050919050565b6000613464603e83613a83565b915061346f826140ad565b604082019050919050565b6000613487602083613a83565b9150613492826140fc565b602082019050919050565b60006134aa602083613a83565b91506134b582614125565b602082019050919050565b60006134cd601883613a83565b91506134d88261414e565b602082019050919050565b60006134f0602183613a83565b91506134fb82614177565b604082019050919050565b6000613513601783613a83565b915061351e826141c6565b602082019050919050565b6000613536602c83613a83565b9150613541826141ef565b604082019050919050565b6000613559602e83613a83565b91506135648261423e565b604082019050919050565b61357881613bc4565b82525050565b600061358a82856132a5565b915061359682846132a5565b91508190509392505050565b60006020820190506135b76000830184613215565b92915050565b60006080820190506135d26000830187613215565b6135df6020830186613215565b6135ec604083018561356f565b81810360608301526135fe8184613233565b905095945050505050565b600060408201905061361e6000830185613215565b61362b602083018461356f565b9392505050565b60006060820190506136476000830186613215565b613654602083018561356f565b613661604083018461356f565b949350505050565b600060208201905061367e6000830184613224565b92915050565b6000602082019050818103600083015261369e818461326c565b905092915050565b600060208201905081810360008301526136bf816132d6565b9050919050565b600060208201905081810360008301526136df816132f9565b9050919050565b600060208201905081810360008301526136ff8161331c565b9050919050565b6000602082019050818103600083015261371f8161333f565b9050919050565b6000602082019050818103600083015261373f81613362565b9050919050565b6000602082019050818103600083015261375f81613385565b9050919050565b6000602082019050818103600083015261377f816133a8565b9050919050565b6000602082019050818103600083015261379f816133cb565b9050919050565b600060208201905081810360008301526137bf816133ee565b9050919050565b600060208201905081810360008301526137df81613411565b9050919050565b600060208201905081810360008301526137ff81613434565b9050919050565b6000602082019050818103600083015261381f81613457565b9050919050565b6000602082019050818103600083015261383f8161347a565b9050919050565b6000602082019050818103600083015261385f8161349d565b9050919050565b6000602082019050818103600083015261387f816134c0565b9050919050565b6000602082019050818103600083015261389f816134e3565b9050919050565b600060208201905081810360008301526138bf81613506565b9050919050565b600060208201905081810360008301526138df81613529565b9050919050565b600060208201905081810360008301526138ff8161354c565b9050919050565b600060208201905061391b600083018461356f565b92915050565b6000608082019050613936600083018761356f565b8181036020830152613948818661326c565b90506139576040830185613215565b8181036060830152613969818461326c565b905095945050505050565b600060a082019050613989600083018861356f565b818103602083015261399b818761326c565b905081810360408301526139af818661326c565b90506139be6060830185613215565b6139cb6080830184613224565b9695505050505050565b60006139df6139f0565b90506139eb8282613c42565b919050565b6000604051905090565b600067ffffffffffffffff821115613a1557613a14613d7a565b5b613a1e82613da9565b9050602081019050919050565b600067ffffffffffffffff821115613a4657613a45613d7a565b5b613a4f82613da9565b9050602081019050919050565b600081519050919050565b600081519050919050565b600082825260208201905092915050565b600082825260208201905092915050565b600081905092915050565b6000613aaa82613bc4565b9150613ab583613bc4565b9250827fffffffffffffffffffffffffffffffffffffffffffffffffffffffffffffffff03821115613aea57613ae9613ced565b5b828201905092915050565b6000613b0082613bc4565b9150613b0b83613bc4565b925082613b1b57613b1a613d1c565b5b828204905092915050565b6000613b3182613bc4565b9150613b3c83613bc4565b925082821015613b4f57613b4e613ced565b5b828203905092915050565b6000613b6582613ba4565b9050919050565b60008115159050919050565b60007fffffffff0000000000000000000000000000000000000000000000000000000082169050919050565b600073ffffffffffffffffffffffffffffffffffffffff82169050919050565b6000819050919050565b82818337600083830152505050565b60005b83811015613bfb578082015181840152602081019050613be0565b83811115613c0a576000848401525b50505050565b60006002820490506001821680613c2857607f821691505b60208210811415613c3c57613c3b613d4b565b5b50919050565b613c4b82613da9565b810181811067ffffffffffffffff82111715613c6a57613c69613d7a565b5b80604052505050565b6000613c7e82613bc4565b91507fffffffffffffffffffffffffffffffffffffffffffffffffffffffffffffffff821415613cb157613cb0613ced565b5b600182019050919050565b6000613cc782613bc4565b9150613cd283613bc4565b925082613ce257613ce1613d1c565b5b828206905092915050565b7f4e487b7100000000000000000000000000000000000000000000000000000000600052601160045260246000fd5b7f4e487b7100000000000000000000000000000000000000000000000000000000600052601260045260246000fd5b7f4e487b7100000000000000000000000000000000000000000000000000000000600052602260045260246000fd5b7f4e487b7100000000000000000000000000000000000000000000000000000000600052604160045260246000fd5b6000601f19601f8301169050919050565b7f455243373231456e756d657261626c653a206f776e657220696e646578206f7560008201527f74206f6620626f756e6473000000000000000000000000000000000000000000602082015250565b7f43616d706169676e696e67206973206e6f742061637469766500000000000000600082015250565b7f4552433732313a207472616e7366657220746f206e6f6e20455243373231526560008201527f63656976657220696d706c656d656e7465720000000000000000000000000000602082015250565b7f4f776e61626c653a206e6577206f776e657220697320746865207a65726f206160008201527f6464726573730000000000000000000000000000000000000000000000000000602082015250565b7f4552433732313a207472616e736665722066726f6d20696e636f72726563742060008201527f6f776e6572000000000000000000000000000000000000000000000000000000602082015250565b7f4552433732313a20746f6b656e20616c7265616479206d696e74656400000000600082015250565b7f4e6f7420616c6c6f77656420746f207472616e7366657220746f6b656e2c206960008201527f742773206120536f756c626f756e6420546f6b656e0000000000000000000000602082015250565b7f4552433732313a207472616e7366657220746f20746865207a65726f2061646460008201527f7265737300000000000000000000000000000000000000000000000000000000602082015250565b7f4552433732313a20617070726f766520746f2063616c6c657200000000000000600082015250565b7f4552433732313a2061646472657373207a65726f206973206e6f74206120766160008201527f6c6964206f776e65720000000000000000000000000000000000000000000000602082015250565b7f45524337323155524953746f726167653a2055524920736574206f66206e6f6e60008201527f6578697374656e7420746f6b656e000000000000000000000000000000000000602082015250565b7f4552433732313a20617070726f76652063616c6c6572206973206e6f7420746f60008201527f6b656e206f776e6572206e6f7220617070726f76656420666f7220616c6c0000602082015250565b7f4552433732313a206d696e7420746f20746865207a65726f2061646472657373600082015250565b7f4f776e61626c653a2063616c6c6572206973206e6f7420746865206f776e6572600082015250565b7f4552433732313a20696e76616c696420746f6b656e2049440000000000000000600082015250565b7f4552433732313a20617070726f76616c20746f2063757272656e74206f776e6560008201527f7200000000000000000000000000000000000000000000000000000000000000602082015250565b7f4e6f7420612063616d706169676e696e67206f776e6572000000000000000000600082015250565b7f455243373231456e756d657261626c653a20676c6f62616c20696e646578206f60008201527f7574206f6620626f756e64730000000000000000000000000000000000000000602082015250565b7f4552433732313a2063616c6c6572206973206e6f7420746f6b656e206f776e6560008201527f72206e6f7220617070726f766564000000000000000000000000000000000000602082015250565b61429681613b5a565b81146142a157600080fd5b50565b6142ad81613b6c565b81146142b857600080fd5b50565b6142c481613b78565b81146142cf57600080fd5b50565b6142db81613bc4565b81146142e657600080fd5b5056fea264697066735822122003ca740339342ecf79f84821b4438f5fd1a17a6e5bf8ff21c25acd5952aa707a64736f6c63430008040033",
  "linkReferences": {},
  "deployedLinkReferences": {}
}