{
  "_format": "hh-sol-artifact-1",
  "contractName": "ChildrenRights",
  "sourceName": "contracts/ChildrenRights.sol",
  "abi": [
    {
      "inputs": [],
      "stateMutability": "payable",
      "type": "constructor"
    },
    {
      "inputs": [
        {
          "internalType": "uint256",
          "name": "_campId",
          "type": "uint256"
        },
        {
          "internalType": "address",
          "name": "_to",
          "type": "address"
        },
        {
          "internalType": "address",
          "name": "_posup",
          "type": "address"
        }
      ],
      "name": "donate",
      "outputs": [],
      "stateMutability": "payable",
      "type": "function"
    },
    {
      "inputs": [],
      "name": "getContractBalance",
      "outputs": [
        {
          "internalType": "uint256",
          "name": "",
          "type": "uint256"
        }
      ],
      "stateMutability": "view",
      "type": "function"
    },
    {
      "inputs": [],
      "name": "owner",
      "outputs": [
        {
          "internalType": "address payable",
          "name": "",
          "type": "address"
        }
      ],
      "stateMutability": "view",
      "type": "function"
    },
    {
      "inputs": [
        {
          "internalType": "uint256",
          "name": "_campId",
          "type": "uint256"
        }
      ],
      "name": "withdraw",
      "outputs": [],
      "stateMutability": "nonpayable",
      "type": "function"
    }
  ],
  "bytecode": "0x608060405269021e19e0c9bab2400000600155336000806101000a81548173ffffffffffffffffffffffffffffffffffffffff021916908373ffffffffffffffffffffffffffffffffffffffff160217905550610902806100616000396000f3fe60806040526004361061003f5760003560e01c80632e1a7d4d1461004457806337f3f7ea1461006d5780636f9fb98a146100895780638da5cb5b146100b4575b600080fd5b34801561005057600080fd5b5061006b6004803603810190610066919061049a565b6100df565b005b610087600480360381019061008291906104c3565b6102d1565b005b34801561009557600080fd5b5061009e610444565b6040516100ab91906106c7565b60405180910390f35b3480156100c057600080fd5b506100c961044c565b6040516100d69190610603565b60405180910390f35b60008054906101000a900473ffffffffffffffffffffffffffffffffffffffff1673ffffffffffffffffffffffffffffffffffffffff163373ffffffffffffffffffffffffffffffffffffffff161461016d576040517f08c379a000000000000000000000000000000000000000000000000000000000815260040161016490610667565b60405180910390fd5b600360009054906101000a900473ffffffffffffffffffffffffffffffffffffffff1673ffffffffffffffffffffffffffffffffffffffff166316a490d4826040518263ffffffff1660e01b81526004016101c891906106c7565b600060405180830381600087803b1580156101e257600080fd5b505af11580156101f6573d6000803e3d6000fd5b50505050600047905060008060009054906101000a900473ffffffffffffffffffffffffffffffffffffffff1673ffffffffffffffffffffffffffffffffffffffff1682604051610246906105ee565b60006040518083038185875af1925050503d8060008114610283576040519150601f19603f3d011682016040523d82523d6000602084013e610288565b606091505b50509050806102cc576040517f08c379a00000000000000000000000000000000000000000000000000000000081526004016102c390610647565b60405180910390fd5b505050565b6002546001541015610318576040517f08c379a000000000000000000000000000000000000000000000000000000000815260040161030f90610687565b60405180910390fd5b6000341161035b576040517f08c379a0000000000000000000000000000000000000000000000000000000008152600401610352906106a7565b60405180910390fd5b80600360006101000a81548173ffffffffffffffffffffffffffffffffffffffff021916908373ffffffffffffffffffffffffffffffffffffffff160217905550346002546103aa91906106fe565b600281905550600360009054906101000a900473ffffffffffffffffffffffffffffffffffffffff1673ffffffffffffffffffffffffffffffffffffffff1663a144819483856040518363ffffffff1660e01b815260040161040d92919061061e565b600060405180830381600087803b15801561042757600080fd5b505af115801561043b573d6000803e3d6000fd5b50505050505050565b600047905090565b60008054906101000a900473ffffffffffffffffffffffffffffffffffffffff1681565b60008135905061047f8161089e565b92915050565b600081359050610494816108b5565b92915050565b6000602082840312156104ac57600080fd5b60006104ba84828501610485565b91505092915050565b6000806000606084860312156104d857600080fd5b60006104e686828701610485565b93505060206104f786828701610470565b925050604061050886828701610470565b9150509250925092565b61051b81610766565b82525050565b61052a81610754565b82525050565b600061053d6014836106ed565b9150610548826107d1565b602082019050919050565b60006105606000836106e2565b915061056b826107fa565b600082019050919050565b60006105836014836106ed565b915061058e826107fd565b602082019050919050565b60006105a66018836106ed565b91506105b182610826565b602082019050919050565b60006105c96026836106ed565b91506105d48261084f565b604082019050919050565b6105e881610798565b82525050565b60006105f982610553565b9150819050919050565b60006020820190506106186000830184610512565b92915050565b60006040820190506106336000830185610521565b61064060208301846105df565b9392505050565b6000602082019050818103600083015261066081610530565b9050919050565b6000602082019050818103600083015261068081610576565b9050919050565b600060208201905081810360008301526106a081610599565b9050919050565b600060208201905081810360008301526106c0816105bc565b9050919050565b60006020820190506106dc60008301846105df565b92915050565b600081905092915050565b600082825260208201905092915050565b600061070982610798565b915061071483610798565b9250827fffffffffffffffffffffffffffffffffffffffffffffffffffffffffffffffff03821115610749576107486107a2565b5b828201905092915050565b600061075f82610778565b9050919050565b600061077182610778565b9050919050565b600073ffffffffffffffffffffffffffffffffffffffff82169050919050565b6000819050919050565b7f4e487b7100000000000000000000000000000000000000000000000000000000600052601160045260246000fd5b7f4661696c656420746f2073656e64204574686572000000000000000000000000600082015250565b50565b7f4e6f74206120636f6e7472616374206f776e6572000000000000000000000000600082015250565b7f6d6178696d756d20646f6e6174696f6e20726561636865640000000000000000600082015250565b7f74686520646f6e6174696f6e206e6565647320746f206265206869676865722060008201527f7468616e20300000000000000000000000000000000000000000000000000000602082015250565b6108a781610754565b81146108b257600080fd5b50565b6108be81610798565b81146108c957600080fd5b5056fea264697066735822122027af7f1dfc9361582dfe03a3b92818e7263e2156ba55187a2586e1e30e2f31ba64736f6c63430008040033",
  "linkReferences": {},
  "deployedLinkReferences": {}
}